S01000004D756C74696672742E73726563BD
S1130000C8210020B91B0000B51B0000B51B00006F
S113001000000000000000000000000000000000DC
S1130020000000000000000000000000B51B0000FC
S11300300000000000000000B51B0000B51B00001C
S1130040B51B0000B51B0000B51B0000B51B00006C
S1130050B51B0000B51B0000B51B0000B51B00005C
S1130060B51B00002D0F00003D0F00004D0F0000D8
S11300705D0F00006D0F00007D0F0000B51B000038
S1130080B51B0000B51B0000B51B0000B51B00002C
S1130090B51B0000B51B0000B51B0000B51B00001C
S11300A0B51B0000B51B0000B51B0000B51B00000C
S11300B010B5064C2378002B07D1054B002B02D03A
S11300C0044800E000BF0123237010BD9C00002001
S11300D000000000B830000008B5084B002B03D026
S11300E00748084900E000BF07480368002B00D117
S11300F008BD064B002BFBD09847F9E70000000031
S1130100B8300000A0000020B8300000000000005B
S1130110F0B55F4656464D464446F0B497B001608C
S1130120B84C236A80256D022B4323620C78052387
S1130130E40700D5E4E109781733890700D5DFE146
S113014053780371002B04D1AF490C6C043323435F
S11301500B64161C824603689B4613786A46137028
S11301601E206946A94B98471E20A94B98472C236B
S1130170F35C002B3FD02B22B45C327B91461219E6
S1130180D2B2D318DBB298469A421ED2A14F0F25A1
S11301902540337BED1802A89F495022B847132D00
S11301A00CD8AD0002ABE85801A900234B70CB700A
S11301B08B7001330B70C0B2984B98470134E4B292
S11301C04B461B19DBB29845E1D8F48902A8924941
S11301D05022904B9847132C37D8A40002ABE05818
S11301E001A900234B70CB708B7001330B70C0B22C
S11301F08A4B984729E0347B02A887495022854BD3
S11302009847132C0CD8A40002ABE05801A9002392
S11302104B70CB708B7001330B70C0B27F4B98471F
S1130220F48902A87C4950227A4B9847132C0CD8A5
S1130230A40002ABE05801A900234B70CB708B7073
S113024001330B70C0B2754B9847737D9B00DBB2D2
S11302505A461370B37DDB0172781343DBB25A46FE
S113026053703379342B00D949E19B006C4AD3583D
S11302709F460421102002221AE0727C317C102057
S113028016E006211020012212E00821102000228D
S11302900EE00021302000220AE00021202000226C
S11302A006E000210020002202E0022110200122A9
S11302B01201702313400B435A469370F27D1723A7
S11302C03F2A00D91CE15B46DA7053461A68537E14
S11302D05BB2002BFBDBF27C738813432422B25CF9
S11302E0D2001343327D92001343B27C5200134375
S11302F003435A469380327E002A20D0102860D0CF
S113030002D800283CD01AE020281BD0302816D16F
S1130310F37C002B0AD0F16980311723FF2900D91F
S1130320EEE0316A8031FF2900D9E9E01723F16951
S1130330FF2900DDE4E0316AFF2900DDE0E05346F7
S1130340196877E0F37C002B0FD0F36980208000DC
S113035084466344191C17233248814200D9CFE0F4
S11303603149306A884200DBCAE017232D49F0691D
S1130370884200DDC4E0306A884200DDC0E0DEE788
S1130380F37C002B12D0F36980200001844663447F
S1130390191C17232548814200D9B1E0336A63440C
S11303A0191C17232148814200D9A9E017231F49AA
S11303B0F069884200DDA3E0306A884200DD9FE0F6
S11303C0BDE7F37C002B12D0F36980200002844641
S11303D06344191C17231648814200D990E0336AFC
S11303E06344191C17231248814200D988E017235B
S11303F00F49F069884200DD82E0306A884200DDFE
S11304007EE09CE70004004000080040651A0000FC
S1130410D91900004D250000342E00005D1B00009A
S1130420602D0000FF03000001FEFFFFFF0F00002E
S1130430FFFF00004B7E5BB2002BFBDB5B461A72B6
S113044053461A68537E5BB2002BFBDBB38B5A46D0
S1130450938353461A68537E5BB2002BFBDB338CC9
S11304605A4613842C23F25C002A04D0013AD2B2F7
S1130470153B0F2A44D82B23F15C143B0F293FD89A
S113048053461868437E5BB2002BFBDBF089337B59
S11304900343B06803430905194312040A435B4646
S11304A01A612A23F35C5A4613750F239375153387
S11304B0F35C002B11D0F28C172315498A421FD804
S11304C05B469A84318D80231B01CA1892B217238C
S11304D00F48824214D85B46D9840E4B19684901EF
S11304E0E023DB0019400C4B5A6850011A68D30E04
S11304F00343DBB20B435A461385002300E0172362
S1130500181C17B03CBC90469946A246AB46F0BDB9
S1130510FF0F00002460800020608000F0B5474693
S113052080B40826234B98460224271C224D4346B8
S11305301F70221C01202B6A184202D01D4B1A7016
S113054007E0531CDBB2111C1A1C0029F3D1194A11
S113055013700F20194B98470022194B1A702B6AFD
S1130560DB0702D50132164B1A70124B1C70221C89
S113057001202B6A184202D10E4B1A7007E0531C5B
S1130580DBB2111C1A1C0029F3D10A4A1370094B5F
S11305901B78012B0AD00B490B785B00084A1278B0
S11305A013430B70013EF6B2002EC0D104BC90463A
S11305B0F0BDC04622010020804400419D09000096
S11305C01F01002018010020F8B54F464646C0B46C
S11305D020203949394EB047394D01246C6112202D
S11305E0384B9847AC611420374B9847AC612020B6
S11305F03649B0472B6A1C425AD10222344B1A7036
S113060002232C1C0120226A104204D1591C1A1CFA
S1130610CBB2002AF7D102222D4B1A70284C0120AC
S1130620236A184202D12A4B1A7007E0531CDBB22A
S1130630111C1A1C0029F3D1254A1370254DA84713
S1130640254F264C23783B70A847254E23783370DA
S1130650A847244B994623784A461370A847224B4F
S11306609846237842461370A847204D23782B7070
S113067020201149114B98470122114B9A614B4696
S1130680197843461A783C7830785318E318C3181D
S1130690DBB2174E33702D789D4209D1154D2C7065
S11306A0154C20701548017015490A70154A1370CD
S11306B00CBC90469946F8BD1C0100209D0A000020
S11306C080440041C90900009D0900001401002074
S11306D0220100201D050000230100201801002034
S11306E0210100200E010020200100201001002023
S11306F01F010020190100200F0100200D0100201E
S1130700170100200C01002010B5041C104B984761
S11307100A20104B98476D2C04D0742C0AD0682CF6
S11307200ED10AE00C4B1A780C4B1878642358430A
S113073010180CE0084B187809E0084B187806E00C
S1130740054B1A78054B187864235843101810BDCC
S1130750C9050000C90900000D010020190100208D
S1130760F0B583B00126294D20E0294829490E22FD
S1130770294B9847002819D16B469C1D274F2448C4
S1130780211CB847002809D123884B2B06D10130FE
S1130790234B984701221D4B1A6007E00136FA23C8
S11307A09B009E42EBD10022184B1A602B68002B51
S11307B0DBD00022154B1A6001261D1C20E01448D2
S11307C018491622144B9847002819D16B469C1DD2
S11307D0124F0F48211CB847002809D123884B2BFE
S11307E006D101300E4B98470122084B1A6007E0EE
S11307F00136FA239B009E42EBD10022034B1A6080
S11308002B68002BDBD003B0F0BDC046FC000020F9
S11308104801002018000020791300000113000093
S1130820C90900000000002010B500220023027056
S11308300424447000244280047103760262C2617D
S113084082600173C0214901C181037443748374BC
S1130850C37403752A21435443758375063943547D
S1130860C2840285C4752B23C4540133C45410BDFF
S113087010B58CB0011C68460C4B98470C4C201CDE
S11308800C496A460C4B98472268537E5BB2002B96
S1130890FBDB117802230B431370054B1A68537E5C
S11308A05BB2002BFBDB0CB010BDC0462908000076
S11308B024010020004000421101000038B5264BFD
S11308C09847264B19684B7E5BB2002BFBDB0A7BF7
S11308D0022313430B734B7E5BB2002BFBDB012023
S11308E0042502240B7EDBB2021C1A401D4200D0F8
S11308F022431C4200D02A431042F3D04B7E5BB209
S1130900002BFBDB488B80B201230B760A7ED2B22C
S11309101340540701D502242343920701D504222E
S113092013435B0711D502230B760EE04B7E5BB2BB
S1130930002BFBDB0B78022293430B70074B1A68E6
S1130940537E5BB2002BFBDB03E04301C0180013B2
S1130950ECE70004000C38BD7108000024010020FD
S113096010B50020084B9847084CFA218900A0478D
S1130970074B1860FA218900A047064B186005222E
S1130980054B1A6010BDC0464D190000A921000096
S11309902C0000202800002010E000E030B5084BB7
S11309A01C68084A00258021490206E0002C04D076
S11309B05460956013680B42FCD00138F6D230BD08
S11309C02800002010E000E030B5084B1C68084AFD
S11309D000258021490206E0002C04D05460956073
S11309E013680B42FCD00138F6D230BD2C00002035
S11309F010E000E00C4B1B68002B10D1EFF31083C8
S1130A00002B09D172B6BFF35F8F0022074B1A7017
S1130A100132074B1A7002E00022054B1A70024A99
S1130A201368013313607047B800002030000020C1
S1130A30BC000020084B1A68013A1A601B68002B9E
S1130A4009D1064B1B78002B05D00122044B1A70E8
S1130A50BFF35F8F62B67047B8000020BC0000206F
S1130A6030000020F0B583B001AC0125657000278B
S1130A70A77025703E20211C064EB0478022D20567
S1130A80054B9A61277065700F20211CB04703B095
S1130A90F0BDC0469D0A00008044004100B583B00B
S1130AA001AB80221A700A785A704A789A708A7850
S1130AB0DA70191C014B984703B000BD5D1B0000A0
S1130AC010B54908402481420CD30023091A01338C
S1130AD09BB28842FAD9013B9BB24024FF2B01D838
S1130AE013800024201C10BDF0B55F4656464D46C9
S1130AF04446F0B489B01C1C12AB1B78061C5E4340
S1130B0040258E4200D9C7E0251C07920C1C021C0C
S1130B10002D51D1181C00210023634DA8478346A2
S1130B20261C0027002300240293039400220023A0
S1130B303F2020218C461F390096019720246442CF
S1130B40041903D40D1CA540A84604E06446241AE5
S1130B500D1CE540A8460C1C8440A146141C1D1C19
S1130B60A4185D41221C2B1C5E4647463E4203D01E
S1130B700E1C2643321C2B1C019C9C4210D802D113
S1130B80009C94420CD8009C019D121BAB414D4625
S1130B90029E039F35433C1C46463443029503940E
S1130BA00138CBD20022012302980399121A8B41F7
S1130BB0110C1B0419436CE00021012D69D1610F54
S1130BC00F1CE1008846181C00210023364CA04766
S1130BD0041C0D1C00239C4620339B4601266346BF
S1130BE00593B9466B461B7D069300239C46002063
S1130BF000213F220094019520235B42D31803D4A3
S1130C00341C9C40231C04E05B469B1A341CDC40CF
S1130C10231C371C9740041C0D1C24184D41201C18
S1130C20291C0290039144463C40A2464C46234072
S1130C305446234305D0029B039C1D1C3543281CAA
S1130C40211C019B8B420AD802D1009B834206D807
S1130C50009B019CC01AA14163463B439C46013A58
S1130C60CAD2009C019D62460599531ADB080F4ABB
S1130C70934208D9069A0132D2B206920A1C013272
S1130C800592082AAED14025069A082A04D05103B9
S1130C901943079B19800025281C09B03CBC9046C9
S1130CA09946A246AB46F0BDAD240000FF1F0000EC
S1130CB010B582B0041C0E4B1B78002B01D0002908
S1130CC00DD001A90C7013200A4B984713200A4B2E
S1130CD09847074B5C7001221A70002006E0044B11
S1130CE05B78834201D01D2000E0002002B010BDDB
S1130CF0C0000020651A0000D9190000444B984236
S1130D0033D006D8434B98420DD0434B98421BD066
S1130D106FE0424B98424AD0414B984258D0414BE5
S1130D20984266D132E0012906D0002963D0022915
S1130D3006D0032906D001E03B4867E0002065E0C7
S1130D403A4863E03A4861E0012906D0002954D0CA
S1130D50022906D0032906D001E0364856E00020D7
S1130D6054E0354852E0354850E0012906D00029C6
S1130D7045D0022906D0032906D001E0304845E0D9
S1130D80002043E02F4841E02F483FE0012906D0EE
S1130D90002936D0022906D0032906D001E02B48C9
S1130DA034E0002032E02A4830E02A482EE00129CD
S1130DB006D0002927D0022906D0032906D001E055
S1130DC0254823E0002021E024481FE024481DE0BA
S1130DD0012906D0002918D0022906D0032906D0FB
S1130DE001E0204812E0002010E01F480EE01F48F8
S1130DF00CE000200AE01E4808E0032006E01D483D
S1130E0004E01D4802E01D4800E01D487047C0464C
S1130E100010004200080042000C0042001800428A
S1130E20001C0042001400420300050003000600F9
S1130E30030007000300010003001E0003001F005D
S1130E400300090003000A0003000B000300110063
S1130E50030012000300130003000D0003000E0042
S1130E6003000F000300170003001800030019001B
S1130E7003000400030008000300100003000C003A
S1130E800300160030B587B00C4B6A4632CB32C231
S1130E9032CB32C2009B834206D001239A006946BA
S1130EA05258824203D100E00023D8B203E0013358
S1130EB0062BF3D1002007B030BDC046842E0000BD
S1130EC07047C046F0B50A4B1B78002B0CD1094F74
S1130ED0094E0A4D0024DE515A1914600433182BAC
S1130EE0F9D10122024B1A708000024BC150F0BDAF
S1130EF0C4000020C8000020C10E00002C01002006
S1130F0010B582B0041C684605490622054B984773
S1130F10201C054B98476B46185602B010BDC046BE
S1130F209C2E00004D250000850E000008B5024BE4
S1130F301B680020984708BDC800002008B5024B74
S1130F405B680120984708BDC800002008B5024B23
S1130F509B680220984708BDC800002008B5024BD2
S1130F60DB680320984708BDC800002008B5024B81
S1130F701B690420984708BDC800002008B5024B2F
S1130F805B690520984708BDC8000020F0B55F469E
S1130F9056464D464446F0B491B0051C0C1C161C34
S1130FA02960081CBD4B984722680523D20700D549
S1130FB06BE122681733920700D566E1B8490A6AE3
S1130FC0871C1B3BBB4013430B620FA92D27F35D0A
S1130FD00B701430C3B20393181CB24B9847039898
S1130FE0B14B9847F05D0021B04B9847F37A6B7191
S1130FF02423F35CAB712523F35CEB71F37E2B723A
S1131000337F6B722B689A46181CA44B9847143094
S113101000220E2306A98C4663441A80338A99461B
S11310208023DB01994519D004D880239B0199457D
S11310300AD00CE1C023DB0199450AD080231B02AE
S1131040994500D108E102E1102306930F3B079371
S113105006E108230693073B079301E133689B46A7
S1131060F368039373690493337E98462623F35CF1
S113107005937368002B15D080225205934236D114
S11310802723F35C002B36D1336A1F1CC0B2884B74
S11310909847011C381C0E2206AB9C466244854BC3
S11310A0984725E008230693002307932723F35C3E
S11310B0002B0BD0069B0093306AB16A0E2206AB5C
S11310C09C466244079B7C4FB84711E0336A1F1C5F
S11310D0C0B2774B9847011C069B0093381C0E2224
S11310E006AB9C466244079B734FB84700E0002060
S11310F0031E00D0C9E0737E002B02D0B37E52469B
S113110093732A68059FD369002BFCD10E3306AA7A
S1131110944663441B8852469381039B5A46134367
S1131120049A1343726813434A4613434246120215
S113113013437F071F432723F35C002B01D10433A0
S11311401F43717E8902337F5B021943F37AB27ABB
S113115013431943727F120211432423F25C520495
S11311600B1C13432522B15C090419433389FF2B5B
S11311700BD0F27E002A03D0A022D204174302E04F
S1131180802252041743194305E0F37E002B02D05A
S11311908023DB041F432C23F35C002B03D1474B38
S11311A09B789B0701D580231F432A68D369002BB2
S11311B0FCD1534659602A68D369002BFCD15346AD
S11311C01F600EAB80221A7000225A70DA709A7077
S11311D0336B0A93736B0B93B36B0C93F36B0393A3
S11311E00D9300270EAEF9B2BB000AAA9858002846
S11311F002D1201C324B9847431C05D03070000CA0
S1131200C0B2311C2F4B98470137042FEBD1002378
S1131210EB602B616B61AB61EB612B62AB626B6268
S11312200022EB85AB853033EA540133EA540133B1
S1131230EA540133EA542868184B9847041C22499D
S1131240224B9847A400224BE55000231DE01023B5
S113125006930023079303E00323069300230793D5
S113126033689B46F368039373690493337E98460B
S11312702623F35C05937368002B00D116E78022C4
S11312805205934200D1FBE635E7181C11B03CBC73
S113129090469946A246AB46F0BDC046850E000076
S11312A000040040651A0000D9190000B10C0000C8
S11312B0811A0000C10A0000E90A00000020004170
S11312C0FD0C00005D1B000089140000C50E000029
S11312D02C01002010B50368C4791C22002C0DD009
S11312E0C08D80B2173A002808D1DA69002AFCD1EF
S11312F0198502211A7E0A42FCD00022101C10BD5E
S113130010B5046882791C23002A33D0828D92B2EE
S1131310173B002A2ED1227E52072BD5E369002BDE
S1131320FCD1638BDBB29A0621D09A0703D5022342
S1131330638318331EE05A0703D5042363831A33E7
S113134018E0DA0703D501236383123312E0DA06C7
S113135005D5628B10231343638342230AE09B0663
S113136005D5628B202313436383412302E0238D3D
S11313700B800023181C10BDF8B557464E46C0B468
S11313801723002A49D0C4790533002C45D00468BA
S1131390E369002BFCD18A468146171C00260125EF
S11313A01FE0227E2A4204D1012B28D0013B002BCE
S11313B0F7D1721C92B253469B5D49464979012983
S11313C002D099B2161C05E0B11C8EB25146895C5C
S11313D0090219434846134B98477A1E97B2002FC7
S11313E015D0237E2B42E4D10F4BDAE7227E0A424A
S11313F007D1012B07D0013B002BF7D10DE01223BD
S11314000BE0002309E0122307E0002305E0237E1C
S11314109B07FAD4044B0221E8E7181C0CBC914644
S11314209A46F8BDD5120000FFFF0000F8B5061C6F
S11314300C1C151C07680A4B9847F38D9BB2002BB4
S113144003D0084B9847052009E0F585054B9847DC
S1131450B46205223323F254323BBB750020F8BD3D
S1131460F5090000350A000010B51723002A06D03C
S1131470C4790533002C02D0024B9847031C181C76
S113148010BDC0462D140000F8B58000654BC5584A
S11314902C68E369002BFCD1237EA67D1E403123FA
S11314A0EB5C3022AF5C1F40F30722D5EB8D9BB27F
S11314B0002B1CD0AA6A1378DBB2511CA96269798B
S11314C0012901D09BB204E0517809020B43023296
S11314D0AA62DB05DB0D2385EB8D013B9BB2EB851B
S11314E0002B06D1013323750133A37501E00123D9
S11314F02375B30709D50223237500223133EA5437
S1131500FB0702D5281CEB68984773076AD5AB8D97
S11315109BB2002B64D0638BDBB21A0702D43F2248
S1131520134001E037221340002B37D09A0707D528
S11315301A223223EA54628B303B1343638327E03D
S11315405A0707D51E223223EA54628B2E3B1343DB
S113155063831DE0DA0707D513223223EA54628B32
S1131560313B1343638313E0DA0607D54222322367
S1131570EA54628B223B1343638309E020221A421C
S113158006D021323223EA54628B123B1343638325
S11315907B0727D5281C6B69984723E0238DDB053F
S11315A0DB0DDAB2696A0A706A6A511C6962697988
S11315B0012904D11B0A53706B6A01336B62AB8D32
S11315C0013B9BB2AB85002B0CD104332375002265
S11315D02E33EA54BB0705D5281C2B69984701E034
S11315E004232375F30607D5102323752376FB06FE
S11315F002D5281CEB699847B30607D52023237529
S113160023763B0702D5281CAB699847330707D5D7
S1131610082323752376BB0602D52B6A281C98471A
S1131620F8BDC0462C01002008B5082803D8800066
S11316301B4B1B589F46002031E01A4B18692EE0C3
S1131640194B186A8005800F184BC340181C26E0FC
S1131650144B586923E0134B1B68022018401ED01A
S113166011491022CB681A42FCD00E4B1B685B0751
S113167014D500200E4B98470A4B9B681B041B0C87
S113168058430CE05023084AD35C00205B0706D57E
S1131690044BD86803E08020000200E0054808BD40
S11316A0A42E0000E00000200008004000127A0090
S11316B0811A0000006CDC0270B50C4C236A0178BE
S11316C0857842780120024092014026B3431343B7
S11316D0021C2A40D2017F308343134303220A4071
S11316E0120203490B401343236270BD00080040FB
S11316F0FFFCFFFF082803D88000224B1B589F469D
S113170017203EE0204A116A02230B431362002093
S113171037E01D4A916902230B439361002030E0B6
S1131720194A118A02230B431382002029E0164A26
S1131730918A02230B439382002022E0134B196801
S113174002220A431A601A68114B13400E4A93840A
S1131750111C1022CB681A42FCD00C4A91680A4B27
S1131760D96251689962126892B29A84002008E0A2
S113177005494422885C022303438B54002000E083
S113178000207047C82E000000080040E000002040
S11317907FFF000030B585B0C222D2001A4B9A6098
S11317A01A4A53681E218B43536001236A461370FF
S11317B00024174DE0B26946A8470134252CF9D11D
S11317C003A800244470012585700470114B9847C8
S11317D00620114B9847114B9847114B1C725C72B1
S11317E09C72DC7201956B465C7006236A4613702A
S11317F014725472002069460A4B984700200A4B21
S1131800984705B030BDC046000800400040004184
S1131810651A0000B9160000F51600002D18000026
S1131820000400405118000009190000064A91699B
S113183008230B4393610122044B1A70191C0B7883
S11318401342FCD17047C04600040040000C004025
S113185070B5061C041C0D782D0205434B78002B33
S113186002D08023DB021D434B7A002B02D080235D
S11318701B031D434868012818D9431E184210D180
S1131880022806D90223002201325B009842FBD8C9
S113189000E0002212023243141C80235B031D4328
S11318A004E00402344380239B021D430B7A002B83
S11318B002D080239B031D430F4A53785BB2002B55
S11318C0FBDB0E4B98470E4B1E700B4A53785BB2F2
S11318D0002BFBDB084B9C601A1C53785BB2002B7B
S11318E0FBDB054A516880235B020B401D435560B6
S11318F0044B984770BDC046000C0040F509000039
S1131900080C0040350A000010B5041C0B4A53783B
S11319105BB2002BFBDB0A4B98470A4B1C70074A4F
S113192053785BB2002BFBDB044A536880214902E5
S11319300B435360044B984710BDC046000C004055
S1131940F5090000040C0040350A000070B5041CC1
S11319501A4A53785BB2002BFBDB194B9847194B9F
S11319601C70164A53785BB2002BFBDB134E706875
S1131970C004C00E144B9847051C124B1C707668AB
S1131980F602F60F114B1C700C4A53785BB2002B15
S1131990FBDB0A4B9C68240AA4B20D4B9847002E2B
S11319A007D1012C07D9281C211C0A4B9847051C78
S11319B001E00134E540281C70BDC046000C004025
S11319C0F5090000040C004029160000080C004032
S11319D0350A0000A921000010B5041C064B9847E5
S11319E0064B1C70064A51888023DB010B4353804D
S11319F0044B984710BDC046F5090000020C004096
S1131A00000C0040350A000010B5041C0F4B984729
S1131A100F4B1C700F4B5A881205100F59880E4A31
S1131A200A405A8059880D4A0A405A80191C80225B
S1131A30D2014B881342FCD1064902024888064B66
S1131A40034013434B80064B984710BDF509000033
S1131A50020C0040000C0040FFF0FFFFFFBFFFFF3F
S1131A60350A000010B50C7824020443024B984751
S1131A70A4B2024B5C8010BD091A0000000C0040A7
S1131A8010B5041C064B9847064B1C70064B5C882B
S1131A902405240F054B9847201C054B984710BD7F
S1131AA0F5090000020C0040000C0040350A00005B
S1131AB04D19000030B5D378002B1ED11478802C3A
S1131AC004D0240680235B021C4300E000245378E6
S1131AD00225AB430AD19378002B03D180239B02C8
S1131AE01C4302E0C023DB021C4341605378013BEA
S1131AF0012B12D8184B1C400FE041600B041B0C47
S1131B00A024E405234383620B0CD024240623433E
S1131B108362D378002B18D01CE00B041B0CA02587
S1131B20ED052B43234383620B0CD0252D062B4359
S1131B3023438362D378002B0CD1630305D59378B8
S1131B40012B01D1816100E041615378013B012BFC
S1131B5000D8816030BDC046FFFFFBFF08B5031C01
S1131B600A1CC1090020002904D15809C0010549F3
S1131B708C4660441F210B401E399940024B984704
S1131B8008BDC04600440041B51A00007047C04675
S1131B9008B5044B9847044B9847044B9847044BAB
S1131BA0984708BD95170000650A00008D1B0000CA
S1131BB08D1B0000FEE7C04670B52E4B2E4A9A429C
S1131BC003D02E4B2B4A9A4204D32D4B2D4A9A42D2
S1131BD010D31EE02C4A294B03339B1A9B08013374
S1131BE09B000022234824498C58845004329A4292
S1131BF0FAD1EAE7254A224B03339B1A9B080133A7
S1131C009B0000221F4800211418216004329A42CC
S1131C10FAD11F4AFF211F4B8B439360FD39902358
S1131C205B001D4AD1501D48C3780324A3430222FC
S1131C301343C370C3780C26B34308210B43C3700A
S1131C40174B987B3025A843051C20202843987304
S1131C50987BB04301439973997BA1430A439A73D8
S1131C60104A516880230B4353600F4B98470F4B26
S1131C709847FEE700000020B83000009C000020D8
S1131C80C40100209C00002004000020A0000020CB
S1131C9000ED00E000000000007000410050004131
S1131CA00048004100400041012500005920000087
S1131CB0031C064A1268002A02D10549034A11602E
S1131CC0024A1068C31813607047C046F800002029
S1131CD0C821002070B590B08023DB050093002359
S1131CE00193FF2269460A8100228B72CB72012183
S1131CF024206C4621540130215425316354013190
S1131D0063540A9305316354013163540593238268
S1131D10E3762276227762761323A3766277E12331
S1131D205B02089380235B030393134B0C93134BC5
S1131D300D9301235B420E930F93114E114D124CE0
S1131D40301C291C6A46A0470028F9D10C4D2C6888
S1131D50201C0E4B98471F2318401E3B8340181C21
S1131D600B4B18602A68D369002BFCD1226802331C
S1131D701343236010B070BD020030000200310034
S1131D8048010020001C00428D0F0000010F0000DC
S1131D9000E100E070B586B0021C01A81649174B9B
S1131DA09847174D174C281C01A91122A047002859
S1131DB0F9D1134E16246C44134D301C211CA84732
S1131DC00028FAD123883E2BF7D10D4E0F4D104C2D
S1131DD0301C291C0322A0470028F9D1084E1624E0
S1131DE06C44094D301C211CA8470028FAD12388D3
S1131DF04B2BF7D106B070BDEC2E0000612500001E
S1131E00480100206914000001130000840100202F
S1131E1079130000F0B557464E464546E0B482B00B
S1131E200C1C682822D002D8632868D094E06F285C
S1131E3037D0742800D08FE04A4B9847061C4A4B91
S1131E4018604A4D0A214A4B984730302870301C9C
S1131E500A21484B9847303169700A23AB70E0B2CD
S1131E60454B98471420454B984775E068203D4BF7
S1131E709847061C424B18603C4D0A213C4B98473E
S1131E8030302870301C0A213A4B98473031697041
S1131E900A23AB70E0B2384B98471420374B98476D
S1131EA05AE0384B1E78384B9A461E602F4D304B03
S1131EB09946301C0A219847303028702D4B98469B
S1131EC0301C0A219847303169700A27AF70E3B299
S1131ED00193181C284CA04711202C4B9847061C32
S1131EE0524610600A21C84730302870301C0A213D
S1131EF0C04730316970AF700198A0472CE0244B83
S1131F001E78244B9A461E60184D194B9946301C76
S1131F100A21984730302870164B9846301C0A2105
S1131F209847303169700A27AF70E3B20193181CE7
S1131F30114CA0471120154B9847061C52461060BF
S1131F400A21C84730302870301C0A21C04730317C
S1131F506970AF700198A04702B01CBC90469946C6
S1131F60A246F0BD09070000800100208401002082
S1131F70C922000095240000951D0000C909000035
S1131F80440100200001002088010020BD08000059
S1131F90010100207C01002070B590B08023DB0596
S1131FA0009300230193FF2269460A8100228B7269
S1131FB0CB72012124206C46215401302154253157
S1131FC06354013163540A930531635401316354FA
S1131FD005932382E3762276227762761323A3760F
S1131FE06277E1235B02089380235B030393134B23
S1131FF00C93134B0D9301235B420E930F93114EDD
S1132000114D124C301C291C6A46A0470028F9D1F6
S11320100C4D2C68201C0E4B98471F2318401E3B68
S11320208340181C0B4B18602A68D369002BFCD121
S1132030226802331343236010B070BD02001600FF
S1132040020017008C010020001400428D0F0000D4
S1132050010F000000E100E0F0B54F464646C0B471
S113206083B03E4B98473E4B98473E4B98473E4B78
S113207098473E4B0021197001225A7099703C4BCD
S11320805A7099701A703B483B4B984710203B4C50
S1132090A0473B4B18701120A0473A4B18703A4B9D
S11320A0984748226B46DA80384D394C394E281C03
S11320B06B46991DA0470028F9D10830B0476B46FC
S11320C006331B88442BF2D1334F34485421B8478C
S11320D00028FAD12D486B46991D2D4B98470028AE
S11320E0E5D16B4606331B882C2BE0D12A4F2B48B5
S11320F04521B8470028FAD124486B46991D244B42
S113210098470028D3D16B4606331B889846224F44
S113211022485321B8470028FAD11D4B9946204F35
S11321201A486B46991DC8470028F9D16B460633F7
S11321301B883A68944663445B7803221340022B5D
S1132140EED1154F15485421B8470028FAD16B46F3
S1132150D8884146134B9847A9E7C046911B000015
S113216061090000D51C0000991F00001401002023
S11321701C010020204E0000C9090000BD08000019
S11321800001002001010020610700004801002037
S1132190011300009D090000D51200008C010020ED
S11321A034000020151E0000002243088B4274D323
S11321B003098B425FD3030A8B4244D3030B8B4244
S11321C028D3030C8B420DD3FF22090212BA030C4D
S11321D08B4202D31212090265D0030B8B4219D32E
S11321E000E0090AC30B8B4201D3CB03C01A52414E
S11321F0830B8B4201D38B03C01A5241430B8B4296
S113220001D34B03C01A5241030B8B4201D30B037E
S1132210C01A5241C30A8B4201D3CB02C01A5241A5
S1132220830A8B4201D38B02C01A5241430A8B4268
S113223001D34B02C01A5241030A8B4201D30B0251
S1132240C01A5241CDD2C3098B4201D3CB01C01A6B
S1132250524183098B4201D38B01C01A5241430975
S11322608B4201D34B01C01A524103098B4201D363
S11322700B01C01A5241C3088B4201D3CB00C01AD0
S1132280524183088B4201D38B00C01A5241430848
S11322908B4201D34B00C01A5241411A00D201466D
S11322A0524110467047FFE701B5002000F0FCF8EA
S11322B002BDC0460029F7D003B5FFF775FF0EBC79
S11322C04243891A1847C04603460B437FD4002271
S11322D043088B4274D303098B425FD3030A8B42B6
S11322E044D3030B8B4228D3030C8B420DD3FF2220
S11322F0090212BA030C8B4202D31212090265D0EE
S1132300030B8B4219D300E0090AC30B8B4201D3A0
S1132310CB03C01A5241830B8B4201D38B03C01AE7
S11323205241430B8B4201D34B03C01A5241030B5E
S11323308B4201D30B03C01A5241C30A8B4201D30F
S1132340CB02C01A5241830A8B4201D38B02C01ABA
S11323505241430A8B4201D34B02C01A5241030A31
S11323608B4201D30B02C01A5241CDD2C3098B4216
S113237001D3CB01C01A524183098B4201D38B0193
S1132380C01A524143098B4201D34B01C01A524136
S113239003098B4201D30B01C01A5241C3088B427B
S11323A001D3CB00C01A524183088B4201D38B0066
S11323B0C01A524143088B4201D34B00C01A524108
S11323C0411A00D201465241104670475DE0CA0FDF
S11323D000D04942031000D34042534000229C469F
S11323E003098B422DD3030A8B4212D3FC228901A9
S11323F012BA030A8B420CD3890192118B4208D37F
S1132400890192118B4204D389013AD0921100E0E0
S11324108909C3098B4201D3CB01C01A52418309F4
S11324208B4201D38B01C01A524143098B4201D321
S11324304B01C01A524103098B4201D30B01C01A4C
S11324405241C3088B4201D3CB00C01A52418308C6
S11324508B4201D38B00C01A5241D9D243088B421C
S113246001D34B00C01A5241411A00D201466346BF
S113247052415B10104601D34042002B00D5494223
S1132480704763465B1000D3404201B5002000F062
S11324900BF802BD0029F8D003B5FFF715FF0EBCF9
S11324A04243891A1847C0467047C046F0B54F46A4
S11324B0464605042D0C2C1CC0B41704160C3F0C06
S11324C09946030C7C4375435F4373437D19260C83
S11324D0AD199C46AF4203D980235B029846C4449D
S11324E04B465143434324042E0C240C2D046644D0
S11324F02C1959188919201C0CBC90469946F0BD1A
S11325000E4B70B500251E1C0D4CE41AA410A542F8
S113251004D0AB00F35898470135F8E700F0BCFD50
S1132520084B00251E1C084CE41AA410A54204D034
S1132530AB00F35898470135F8E770BDA4300000AC
S1132540A4300000A4300000A8300000002310B51F
S1132550934203D0CC5CC4540133F9E710BD0000AE
S11325600EB410B59DB002A9029008610B488224F4
S113257088604861012040421FABC881084804CBF1
S1132580A400006801938C8100F0C4F80023029A2F
S113259013701DB010BC08BC03B01847FFFFFF7FC9
S11325A098000020032370B5CC1C9C430834051C00
S11325B00C2C01D20C2405E0002C03DA0C2300209F
S11325C02B6042E08C42F9D3204A1368101C191C7A
S11325D0002913D00A68121B0DD40B2A02D90A60F1
S11325E08B181FE08B4202D15A6802601BE04A68D4
S11325F05A600B1C17E00B1C4968E9E7144E33685A
S1132600002B03D1281C00F001FB3060281C211C86
S113261000F0FCFA031C421CD0D00322C61C9643D3
S113262086420AD11C60181C07210B301A1D8843EE
S1132630821A0AD05142995007E0311A281C00F03E
S1132640E5FA431CBAD0331CECE770BD0801002046
S113265004010020F0B58E6885B0071C0C1C0392A1
S11326600193B34245D390238A89DB001A423DD0BB
S113267003250969236801985B1A029363695D4322
S1132680EB0F5D19029B6D1001331B189D4200D2A4
S11326901D1C381C53050FD5291CFFF783FF061E8C
S11326A013D0029A2169FFF751FFA289184B1340F6
S11326B080221343A38111E02A1C00F01FFB061E95
S11326C00CD1381C216900F0D3FA0C2340220120DC
S11326D03B60A38940421343A38117E0029B266118
S11326E0F61826606561019EED1AA560019BB34250
S11326F000D2019E321C2068039900F0A4FA002045
S1132700A3689B1BA36023689E19266005B0F0BDD7
S11327107FFBFFFFF0B59FB0029005938B890E1CE1
S1132720171C1B0610D50B69002B0DD14021FFF798
S113273039FF30603061002804D10C23029A01383B
S11327401360D0E040237361002306AD6B61203336
S11327506B761033AB763C1C2378002B03D1E31B40
S1132760049312D003E0252BF9D00134F4E7049B41
S11327700298311C3A1CFFF76DFF431C00D1ACE0FA
S11327806A69049B944663446B612378002B00D1EF
S1132790A3E00122002352426A6002A95432521873
S11327A001342B60EB60AB601370AB654F4F217845
S11327B0381C052200F03CFA002808D0C01B012771
S11327C08740381C2B68013418432860EEE72B68D7
S11327D0DA0604D55322202102A8121811701A0710
S11327E004D553222B2102A81218117022782A2A08
S11327F001D0099B0EE0059A111D12680591002A6B
S113280001DB099204E05242EA60022213432B6086
S1132810013409E02278303A092A04D80A214B43CA
S113282001349B18F6E7099323782E2B18D163788B
S11328302A2B09D1059B02341A1D1B680592002B13
S11328400DDA01235B420AE0002301342278303A96
S1132850092A04D80A214B4301349B18F6E707934D
S1132860234F2178381C032200F0E2F9002807D016
S1132870C01B40278740381C2B680134184328604C
S113288021781C480622671C297600F0D1F900281B
S113289012D0194B002B06D10722059B0733934313
S11328A00833059314E005AB00930298291C321CED
S11328B0124B00E000BF07E005AB00930298291C0F
S11328C0321C0E4B00F08AF80390039B013304D0B2
S11328D06B69039A9B186B613DE7B3890B985B06A0
S11328E001D5012040421FB0F0BDC0466430000055
S11328F06A3000006E300000000000005526000021
S1132900F7B5171C01930A698B6800900C1C93425D
S113291000DA131C221C3B6043321278002A01D0D7
S113292001333B6023689B0602D53B6802333B605E
S1132930062523681D401ED0231C43331B785A1ED2
S11329409341226892061CD53020E1184031C870AA
S1132950211C5A1C45310978A21840320233D17027
S11329600FE0221C0123009801991932089EB047F8
S1132970431C0ED00135E3683A689B1A9D42F0DB94
S1132980DAE7221C009801994332089DA847431CAA
S113299002D10120404220E006232068E1683A6821
S11329A003400025042B03D18D1AEB43DB171D4094
S11329B0A3682269934201DD9B1AED180027AF42F8
S11329C00ADA221C0123009801991A32089EB047A2
S11329D0431CDED00137F2E70020FEBDF0B58BB01A
S11329E006920A1C43320793059004920A7E0C1C3B
S11329F0109B6E2A00D1A8E011D8632A22D009D8EE
S1132A00002A00D1B2E0582A00D0C2E045310A7051
S1132A107C4A4FE0642A1DD0692A1BD0B9E0732A8E
S1132A2000D1A7E009D86F2A29D0702A00D0B0E0DD
S1132A30202209680A43226037E0752A1FD0782AC9
S1132A4033D0A6E00E1C1A684236111D19601368B3
S1132A503370A1E021681A68080606D4490604D533
S1132A60111D19600023D55E02E0111D196015685F
S1132A70002D3BDA2D23049A6D42137036E0216851
S1132A801A68080606D4490604D51568111D19608C
S1132A90ADB202E0111D196015685A4B227E0393F2
S1132AA00A276F2A1DD108271BE0221C78214532F2
S1132AB01170554A19680392081D226818600D6840
S1132AC0100602D4500600D5ADB2D30702D5202398
S1132AD01A4322601027002D03D1202322689A4331
S1132AE02260231C002243331A7002E00A27454B5C
S1132AF003936368A360002B03DB042221689143E2
S1132B002160002D02D1049E002B0ED0049E281CAF
S1132B10391CFFF7CFFB039B013E5B5C281C337021
S1132B20391CFFF741FB051EF1D1082F09D1236899
S1132B30DB0706D563682269934202DC3023013E39
S1132B403370049B9B1B23612BE009681A680806F9
S1132B5007D4490605D5111D19601368A28A1A8085
S1132B6004E0111D1960136862691A600023049E51
S1132B70236116E01A68111D196016680021301CC3
S1132B80626800F055F8002801D0801B606063681B
S1132B9003E0261C42363270012323610023049A89
S1132BA01370079B05980093211C069B09AAFFF745
S1132BB0A7FE431C02D10120404221E0236905986D
S1132BC00699321C079DA847431CF4D023689B0731
S1132BD005D4099BE068984212DA181C10E000251D
S1132BE0E368099A9B1A9D42F3DA221C0123059893
S1132BF006991932079EB047431CDCD00135EFE734
S1132C000BB0F0BD753000008630000038B50023ED
S1132C10064C051C081C2360FFF74AF8431C03D12B
S1132C202368002B00D02B6038BDC046C0010020B3
S1132C30C9B28218904204D003788B4202D001308A
S1132C40F8E70020704710B5814208D28B189842EB
S1132C5005D29B1A013A09D3995C8154FAE70023FF
S1132C60934203D0CC5CC4540133F9E710BD000097
S1132C7030B500293ED004390B68002B00DAC9189E
S1132C801D4A1368141C002B02D14B60116031E003
S1132C9099420DD208680A189A4203D11368C318DE
S1132CA00B6053684B60216024E08A4203D8131CF4
S1132CB05A68002AF9D11D685C198C420BD1096845
S1132CC0691858181960904214D11068526809188C
S1132CD019605A600EE08C4202D90C23036009E0AB
S1132CE008680C18944203D11468526800190860EB
S1132CF04A60596030BDC04608010020F8B5061C82
S1132D000C1C151C002904D1111CFFF74BFC041CDE
S1132D1018E0002A03D1FFF7ABFF2C1C12E000F0EF
S1132D2013F8A8420ED2301C291CFFF73BFC071EE7
S1132D3007D0211C2A1CFFF709FC301C211CFFF7BB
S1132D4097FF3C1C201CF8BD0B1F1A68101F002A9B
S1132D5004DA891804390B68D01804387047000065
S1132D60A2020000FE040000FE040000FE040000B5
S1132D70FE040000FE040000FE040000FE04000047
S1132D80FE040000FE040000FE040000FE04000037
S1132D90FE040000FE040000FE040000FE04000027
S1132DA08A020000FE040000FE040000FE0400008D
S1132DB0FE040000FE040000FE040000FE04000007
S1132DC0FE040000FE040000FE040000FE040000F7
S1132DD0FE040000FE040000FE040000FE040000E7
S1132DE09A020000FE040000FE040000FE0400003D
S1132DF0FE040000FE040000FE040000FE040000C7
S1132E00FE040000FE040000FE040000FE040000B6
S1132E10FE040000FE040000FE040000FE040000A6
S1132E2092020000AA020000720200008202000066
S1132E307A020000020000000300000028000000E5
S1132E402900000004000000050000000600000046
S1132E500700000020000000210000002200000004
S1132E6023000000240000002500000026000000CC
S1132E702700000008000000090000000A0000000C
S1132E800B00000000080042000C00420010004249
S1132E900014004200180042001C0042090A0B0CF6
S1132EA00D0E00003A16000036160000361600001B
S1132EB096160000961600005016000040160000FA
S1132EC056160000841600002017000000170000AA
S1132ED00017000080170000121700002E170000D2
S1132EE0041700003C1700007017000041542B43E6
S1132EF0495053454E443D25632C330D0A000000D0
S1132F0000202020202020202020282828282820B5
S1132F1020202020202020202020202020202020AD
S1132F202088101010101010101010101010101015
S1132F301004040404040404040404101010101005
S1132F4010104141414141410101010101010101CF
S1132F500101010101010101010101011010101021
S1132F6010104242424242420202020202020202A1
S1132F7002020202020202020202020210101010F5
S1132F80200000000000000000000000000000001D
S1132F90000000000000000000000000000000002D
S1132FA0000000000000000000000000000000001D
S1132FB0000000000000000000000000000000000D
S1132FC000000000000000000000000000000000FD
S1132FD000000000000000000000000000000000ED
S1132FE000000000000000000000000000000000DD
S1132FF000000000000000000000000000000000CD
S11330000043000000000000000000000000000079
S113301000000000000000000000000000000000AC
S1133020000000000000000000000000000000009C
S1133030000000000000000000000000000000008C
S1133040000000000000000000000000000000007C
S1133050000000000000000000000000000000006C
S113306000000000232D302B2000686C4C006566A6
S113307067454647003031323334353637383941C5
S113308042434445460030313233343536373839DB
S11330906162636465660000F8B5C046F8BC08BCAC
S11330A09E467047D9000000F8B5C046F8BC08BC7D
S10B30B09E467047B1000000C8
S11330B841542B4349505345525645523D312C37C0
S11330C83637310D0A00000041542B4349504D5501
S11330D8583D310D0A00000008000000401F0000A0
S11330E801000000002F0000000000000430000070
S11330F824300000443000000000000000000000FC
S11331080000000000000000013000000000000082
S113311800000000000000000000000000000000A3
S11331280000000000000000000000000000000093
S11331380000000000000000000000000000000083
S10F31480000000000000000380000201F
S9031BB928
